:020000040800F2
:1000000018070020D900000821290008E32400086F
:1000100000000000000000000000000000000000E0
:10002000000000000000000000000000532900084C
:10003000000000000000000023290008ED2900084E
:10004000EB000008EB000008EB000008EB000008E4
:10005000EB000008EB000008EB000008EB000008D4
:1000600000000000AD020008BD020008EB0000081F
:10007000EB000008652A0008EB000008EB00000810
:10008000EB000008EB000008EB000008EB000008A4
:1000900000000000EB000008EB000008EB00000887
:1000A000EB000008EB000008EB0000080135000839
:1000B000EB000008EB00000800000000000000005A
:1000C0000448854600F0A4F800480047E5350008DC
:1000D000C046C0461807002004488047044800472F
:1000E000FEE7FEE7FEE7FEE7FEE7FEE7632A00081D
:1000F000C100000830B50B46014600202022012433
:1001000009E00D46D5409D4205D31D469540491B4B
:100110002546954040191546521E002DF1DC30BD94
:1001200070B500242546002801DA01244042002948
:1001300001DA01254942FFF7DDFFAC4200D0404221
:10014000002C00D0494270BDF0B51FB40646002017
:1001500082B005464024019100901BE0019922469F
:100160000F46304600F042F8049A059B801A9941E8
:1001700010D310461946224600F028F8361A8F414F
:100180000197224601200021009F00F01FF8381837
:100190004D4100902046641E0028DFDC019B009842
:1001A0002946324607B0F0BDD2B201E00270401CD1
:1001B000491EFBD270470022F6E710B513460A46E7
:1001C00004461946FFF7F0FF204610BD10B5202A5F
:1001D00004DB0146203A9140002010BD91402023CD
:1001E0009C1A0346E3401943904010BD10B5202AE5
:1001F00004DB0846203AD040002110BD0B46D34016
:10020000D0402024A21A91400843194610BD000096
:10021000064C0125064E05E0E36807CC2B430C3C59
:1002200098471034B442F7D3FFF74EFF2037000849
:1002300040370008F8B50446006881688907CD0F8B
:1002400002F050F900282AD0002D28D120688168BA
:100250000522114010250126012914D18168114A77
:100260001140891C816021680320086000F086FE2F
:10027000074610E000F082FEC01B02280BD9206860
:100280008068C00707D0A06D2843A065E06D3043AB
:10029000E0650120F8BD20688068C007EAD1002031
:1002A000F8BD0000E8FFFF7F7047000010B502486E
:1002B00000F0B0FC10BD00005C02002010B5024848
:1002C00000F0A8FC10BD00008800002010B5044616
:1002D000006C09498008800040186064207814216F
:1002E0000838FFF707FF04498031A164C106C90E31
:1002F00001208840E06410BD000802400179084BED
:100300008906890E8A00D2180265054A4432491EC0
:1003100042658A07920F0121914081657047000074
:10032000FC080240F0B5846CC56C6560046D002C5F
:1003300002D0446D856D65600B4C6568066C1C27AA
:100340003E400127B7403D436560046863608368B1
:10035000102B036803D099600068C260F0BD9A60FA
:100360000068C160F0BD00000000024010B524220A
:100370000549064801F016FE054800680168042298
:100380009143016010BD0000B8020020C8010020A8
:100390005C020020FEB550490878C8287ED18878D4
:1003A00016287BD10A79CB781002184340050C46F9
:1003B000400D2434208008791F27C20848797F0126
:1003C00043011A435205520D62808A7980099200D6
:1003D0001043CA79930218434005400DA08050088D
:1003E0000A7AD30118434005400DE08013094A7A88
:1003F00015012B435B055B0D23818B7AD2095B00D2
:10040000C97A1A4349020A435105490DFF22618105
:10041000913251420192009171223B461201AE216C
:1004200003F0C3F8A0840F21052001912B4D00900B
:10043000A0883B462A46AE2103F0B7F860846421C9
:1004400048420191009020883B462A46AE2103F0A5
:10045000ACF82084C1134840401A1E2100260191A7
:1004600080B2322364220096314603F09EF825467E
:100470002035A87250214842019100907122608875
:100480003B461201AE2103F090F8E084001D0928DC
:1004900000D2E6842189124A104800E015E06F3846
:1004A000914203D3814201D9012100E00021E97288
:1004B0006189814201D9022006E00A480818C7284C
:1004C00001D2012000E00020287324210248FFF718
:1004D00072FEFFF74BFFFEBDB802002013070000BD
:1004E0001A0400007BFCFFFF72B6FEE7F0B504467D
:1004F000002089B02546064640350290287D012817
:100500000ED001272F752046FFF794FE0590206836
:1005100001F0ECFF0028A06D05D01021084388E011
:10052000022009B0F0BDFF210131884302210843B8
:10053000A0652068C168414A11400491C168D24356
:100540001140C16000212068826817239A43DB07AD
:100550001A4382603A4A20680DE0029B5B1C0293BA
:10056000934208D3A06D0221884310210843A0655F
:10057000002028754DE08368DB0FEED18030406BA2
:10058000491C4006400E86190829DCD33046FFF787
:10059000B1FD0146206882682A4B1A40521C8260D5
:1005A00020680269920F920713D1274A12680F261A
:1005B000B60432400726B604B2420AD3920C3E4635
:1005C000D21E96407208019600E0521E0192002A47
:1005D000FBD18030426BD209D2010A4342632068CA
:1005E00081681940891C816000F0C8FC064612E051
:1005F00000F0C4FC801B02280DD9206801F076FFB2
:10060000002808D0A06D10210843A065E06D384394
:10061000E065012085E7206801F068FF0028E7D148
:100620002068C168049A1143C160A06D80088000F1
:10063000401CA06500202875059872E70380000023
:1006400000F20200E8FFFF7F08270140F8B500270D
:100650000646044640360097307D0D4601280FD0EF
:1006600001203075206801F045FF00280AD0A06DF8
:1006700020210843A0650127002030753846F8BDC9
:100680000220F8BD686802287ED001222169D207C5
:10069000914202D0121D914206D120682968826AD7
:1006A0004903490B0A436EE0C206D20E0F20216EA9
:1006B000904081432868430302D0C3074BD102E036
:1006C0004000C00E48E0830701D5012044E0430705
:1006D00001D5022040E0030701D503203CE0C3061A
:1006E00001D5042038E0830601D5052034E0430617
:1006F00001D5062030E0030601D507202CE0C30514
:1007000001D5082028E0830501D5092024E0430510
:1007100001D50A2020E0030501D50B201CE0C3040D
:1007200001D50C2018E0830401D50D2014E043040A
:1007300001D50E2010E0030401D50F200CE0C30307
:1007400001D5102008E0830301D5112004E0400307
:1007500001D5122000E00020904001432166696825
:10076000E2698808401C904210D820682B68826A91
:100770009C46C906C90E0F238B409A4363469B00D3
:100780001B0F8B401A4300E03BE082622168AB689C
:1007900028684A6900028243184040014009024328
:1007A0004A612868002800DB66E72B4A11680723A6
:1007B0009B051940294B984214D10B0212D4C00258
:1007C0000143104601F09AFE264825490068FFF7CC
:1007D00091FC0C21401C484300E0401E0090002882
:1007E000FBD149E7204B984203D1CB0101D48002D1
:1007F00005E01E4B9842D7D14802D5D45802014398
:1008000025E001212069C907884202D0091D8842DC
:1008100006D120682968826A4903490B8A438262AB
:1008200028680028C0DA0C4A116807239B05194084
:100830000A4B984201D1C00208E00B4B984201D10B
:10084000800203E0094B9842AED14002814310463A
:1008500001F054FE10E7000008270140001000B02E
:10086000400D030010000020004000B8002000B43C
:10087000FEB50027044601973E46029700970028E0
:1008800005D02546A06D2035002802D007E00120C4
:10089000FEBD204600F0FCF8E665542006552068B1
:1008A0008168C900C90F12D18168724A11400122C2
:1008B00012071143816071486F490068FFF71AFC05
:1008C0004000801C00E0401E00900028FBD1206802
:1008D0008168C900C90F08D1A16D10221143A1651B
:1008E000E16D01221143E165174601F003FEA16DA0
:1008F000C90601D4002804D0A06D10210843A065CA
:10090000B4E0A06DFF210131884302210843A065B6
:10091000206801F0E7FD00286DD1217EA0688903E1
:100920000843617ECA03A17E4B031A431043226B26
:10093000002A01D0012212031043E2681043226909
:10094000002A02DA5200520801E001225205104347
:100950002A7B52001043019A10432A78012A09D1B8
:10096000002922D0A16D20221143A165E16D012251
:100970001143E165616A002906D0FF23C1331940A4
:10098000A26A0143104608432168CA683C4B1A40DA
:100990000243CA606168029A890F8907E06C0A43C2
:1009A00010432A7F012A04D00CE0012109040843E6
:1009B000E0E7636C226C491C1A43A36C0B4311469D
:1009C0001943084321680A692E4B1A4002430A6101
:1009D00003216068890788420DD0590788420AD0F0
:1009E0004900884207D0284A91680F239B04994305
:1009F0001840014391600021626B206801F085FD81
:100A00002249A26B206801F080FD0F202169C043BC
:100A100000291CD00122520591420AD121688A6A1C
:100A2000227F9200121FD206D20E9040226E1043F7
:100A3000886220684069616B4007400F88420BD193
:100A4000E665A06D80088000401CA0650FE021686D
:100A50008A6A02438A62ECE7A06D02218843102172
:100A60000843A065E06D01210843E0650127384691
:100A7000FEBD0000E8FFFF7F400D030010000020D6
:100A80000102DEFF02FCFF1F0027014004FFFF07F9
:100A900070B586B0064614216846FFF78CFB1D49E9
:100AA0003068884234D11C480268012109050A4394
:100AB000026000680840059017484038416B0122E9
:100AC00011434163406B002510400590D1200090F8
:100AD00003200190052069460295000700F0A0F967
:100AE0000F4C0E482060A5600520E5606060802006
:100AF000206140006061E56180002562A0612046C0
:100B000000F0E4F8002801D0FFF7EEFC3465A6629F
:100B100006B070BD00240140401002401C0002409D
:100B200088000020F0B5002808D0014620314A791D
:100B3000022A05D00422C263002008710120F0BD02
:100B4000026813680E24A3431360426C1468FF23E9
:100B500001339C43146002681468640864001460E4
:100B60000C4A5568066C1C24264001242746B740D1
:100B70003D435560826CC56C5560026D002A05D0FE
:100B800015689D431560826D406D42604C71002078
:100B90000871F0BD00000240F8B500240246203282
:100BA0005179022903D00421C16301242DE0016899
:100BB0000B680E25AB430B6001680B685B085B009C
:100BC0000B60416C0B68FF250135AB430B6010498E
:100BD0004D68066C1C231E4001231F46B7403D4351
:100BE0004D60816CC56C4D60016D002906D00E68AA
:100BF0001D02AE430E60416D856D4D605371002145
:100C00001171816B002900D088472046F8BD000093
:100C100000000240F0B42C490C6802681368056CAF
:100C20001C273D400426AE40264211D05E070FD55A
:100C300013689B0603D4146804239C4314604B6818
:100C4000046C04223C40A24013434B60016B1CE047
:100C50000227AF40064627402036002F19D09F07B5
:100C600017D513689B0605D413680A24A3431360A1
:100C7000012272714B68046C1C2214400222A240B3
:100C800013434B6000213171C16A00291AD0F0BCB6
:100C900008470827AF40274214D01B0712D5136816
:100CA0000E24A34313604B68046C1C2214400122E1
:100CB0001546A5402B434B60C26372710021317110
:100CC000416BE2E7F0BC70470000024070B50400E1
:100CD0003FD02548256814212818FFF70BFA80001B
:100CE0002064022026462036707128681F4908407B
:100CF0002860E168A06862690843216911430843DC
:100D0000A1690843E1690843216A084321680A6828
:100D1000104308602046FFF7D9FA0121A068890333
:100D20000025884200D165602079616C8006800EC4
:100D30000860A06CE16C41606068401E03280AD81E
:100D40002046FFF7DBFA206D0560606DA16D416004
:100D500004E0012070BD25656565A565E56301209A
:100D600070713571002070BDF8FFFDBF0F80FFFF6F
:100D7000F8B504468C4620300179002501290BD0B6
:100D80000126067141790027012907D08021E163FE
:100D9000077101252846F8BD0220F8BD02214171E6
:100DA000E763206801684908490001606146204600
:100DB000FFF7B8FA206B00282068016801D00E22E6
:100DC00005E0042291430160206801680A22114372
:100DD0000160606C0168CA03074902D502680A43D2
:100DE0000260206D002802D002680A430260206879
:100DF000016831430160CDE70001000070B5044691
:100E000000F0BCF80546601C02D0044800782418A5
:100E100000F0B4F8401BA042FAD370BD04000020DB
:100E2000F0B5002303249AE02A4601259D402A407C
:100E30007ED00E79B607B60F012E01D0022E16D144
:100E400086682746B4465E00B646B7406646BE434F
:100E5000B446CF687646B7406646374387604668F3
:100E6000AE430D79ED06ED0F9D40354345600D799C
:100E7000ED43AD0708D0C5685F002646BE40B543C8
:100E80008E68BE402E43C6600D79AD07AD0F022DB2
:100E90000ED1DD08AD002D18AC462D6A5E07F60EAA
:100EA0000F27B740BD430F69B7402F4365462F62F8
:100EB00005685F002646BE40B5430E79B607B60FFB
:100EC000BE402E4306604D68AD03AD0F46D09E0870
:100ED000264DB6007519AC462D6E9E07F60E0F27EF
:100EE000B740BD4305273F07B84201D100270FE0B7
:100EF0001F4FB84201D101270AE01E4FB84201D16D
:100F0000022705E01C4FB84201D1032700E0052766
:100F1000B7402F43154D664637662D684E6895439A
:100F2000F60200D51543114F3D607D68954300E002
:100F300014E04E68B60200D515437D600B4D803538
:100F40006E684F689643BF0300D516436E602E68E7
:100F50004F689643FF0300D516432E605B1C0A685A
:100F60001546DA4000D05FE7F0BD000000180240EF
:100F70000004005000080050000C00500148806838
:100F80007047000004000020024881680278891838
:100F9000816070470400002010B5084800240168F3
:100FA000821511430160032000F00AF8002801D0E7
:100FB000012401E000F028F8204610BD0020024086
:100FC00070B50F4E002431780546002915D07D20DC
:100FD000C000FFF78FF801460A480068FFF78AF85B
:100FE00000F030FC002808D1042D06D2002229464A
:100FF000401E00F02BF8756000E00124204670BD13
:10100000040000201000002008B5094801680122F2
:101010001143016000681040009005484038C26BE1
:1010200001040A43C263C06B0840009008BD000081
:1010300040100240002805DBC106C90E012088408F
:10104000014908607047000000E100E010B502F0BF
:101050005FFA10BD10B50F4C216803225202914374
:1010600001432160C11FFF39FA390ED10A48062118
:10107000006848430949FFF73DF8401C02E000289A
:1010800005D0401E61694905F9D4002010BD032038
:1010900010BD0000007000401000002040420F0012
:1010A000F8B5044600680026664D800358D56548AB
:1010B00000274038C06BC00009D462484038C26B7A
:1010C00001040A43C263C06B0840012700905E48D8
:1010D0000168821511430160FFF750FF009005E0A1
:1010E000FFF74CFF0099401A022825D8564800689F
:1010F000C005F5D5E8690321090208400FD0616AEF
:1011000081420CD0E86903210902EA698843012180
:1011100009040A43EA61EA698A43EA61E861C007AF
:101120000FD0FFF72BFF009008E0FFF727FF009993
:10113000411A4648814201D9032609E0E86980073F
:10114000F3D5E869032109028843616A0843E8612D
:10115000002F05D03B484038C26B01048A43C2636C
:101160002078C00705D0686961688008800008435E
:1011700068612078C00606D5686903218902884322
:10118000A168084368612088800506D56869032145
:10119000890488436169084368612088400506D551
:1011A0006869032109058843A169084368612078BB
:1011B000800606D56869032109038843E16808436E
:1011C00068612088400411D56869E1698000800861
:1011D000084368610121E0698907884206D11948FE
:1011E0004038C168012212041143C16020688002A6
:1011F00010D5686901218905226A88431043686116
:10120000206A884206D10F484038C1680122120680
:101210001143C1602088000512D568690321890344
:101220008843216908436861012120698903884254
:1012300006D104484038C168012212041143C1603C
:101240003046F8BD40100240007000408813000096
:10125000F8B50F46060043D04D4D28684007400FB3
:10126000B84213D22868C008C00038432860FFF78E
:1012700085FE044605E0FFF781FE011B45488142DB
:1012800061D828684007400FB842F4D13068424C1A
:1012900081070DD5400704D5A0680721090308433D
:1012A000A060A0680F2109028843B1680843A060CC
:1012B0003078C00732D0706801280AD002280BD0DD
:1012C00000280FD03449403103280ED0C96989075E
:1012D00004E02168890301E021688901002906DB17
:1012E0000120F8BD21684905F8E7096AEFE7A16820
:1012F000C908C9000143A160FFF740FE009006E065
:10130000FFF73CFE0099411A224881421BD8A06891
:10131000382108407168C9008842F1D12868400727
:10132000400FB84217D91A480168C908C9003943A3
:101330000160FFF723FE054607E0FFF71FFE411B94
:101340001448814201D90320F8BD114800684007C4
:10135000400FB842F1D13078400706D5A068072188
:1013600009038843F1680843A06000F031F8A168E0
:101370003C2289091140094A515CC906C90EC8407E
:101380000749086007480068FFF71AFEF8BD00002B
:10139000002002408813000000100240C036000800
:1013A00010000020080000200648074900688968EE
:1013B000064A4904490F8900515CC906C90EC84054
:1013C00070470000100000200010024000370008A5
:1013D00010B5204CA068204A8006400F16D0A068A7
:1013E0008006410F501001290FD0A1688906490FCE
:1013F000022912D0A0688006400F042823D0A068DC
:101400008006400F032821D0002010BD2068012154
:101410008004400F8140104612E0E1688B07E168CC
:101420009B0F4906490F491C032B00D01046FEF7BD
:1014300061FEE1684904490E4843E168490F491CCF
:10144000FEF758FE10BD0120C00310BD7D20000234
:1014500010BD0000001002400024F400F8B50400A4
:101460007ED020783827C007ED4D002846D0A868E8
:10147000E96838408907890F102802D008280BD066
:1014800001E0032908D001206268000482420AD1E9
:1014900029680143296015E0286880032ED560681B
:1014A0000028DDD02AE0052301211B0489049A428B
:1014B0002A6802D10A432A60EAE782432A60286840
:1014C00088432860606800280CD0FFF757FD064667
:1014D00004E0FFF753FD801B642873D8286880035D
:1014E000F7D50BE0FFF74AFD064604E0FFF746FD9F
:1014F000801B6428F1D828688003F7D420788007FF
:1015000069D5A868E96838408A070721920FC9029F
:10151000102802D0002813D001E0022A10D0E06881
:10152000002846D028688843216908432860286835
:10153000FF21013108432860FFF720FD06462CE01B
:101540002A68520502D5E268002A89D06A687F239A
:101550001B029A4363691B021A436A60002800E079
:101560008DE00ED1286888432169084328602868E7
:1015700001218004400F8140AA48FEF7BBFDAA4923
:101580000860AA480068FFF71BFD002877D122E019
:10159000FFF7F4FC801B02289FD828684005F7D588
:1015A00068687F210902884361690902084368600D
:1015B00011E02968FF20013081432960FFF7DEFC3C
:1015C000064605E098E0FFF7D9FC801B022884D886
:1015D00028684005F7D42078954E00072ED5A868D6
:1015E0008006400F03280AD0A0690028306A16D070
:1015F000012108433062FFF7C1FC07460BE0306A67
:1016000080071BD5A06900289FD017E0FFF7B6FC24
:10161000C01B022870D8306A8007F7D50EE040085A
:1016200040003062FFF7AAFC074604E0FFF7A6FC83
:10163000C01B022860D8306A8007F7D420784007A2
:101640006CD5A86800278006400F042818D0E86BE6
:10165000C00008D4E96B012000070143E963E96B8E
:1016600001400127009173480168C90519D4016838
:10167000821511430160FFF781FC00900DE083E0CB
:10168000F06980074AD5A06800287DD046E0FFF7C2
:1016900075FC0099401A02282ED866480068C005DB
:1016A000F5D5A168012910D004200529F16911D0D0
:1016B00049084900F161F1698143F161A06800289E
:1016C00016D0FFF75BFC00900EE0F06901210843A3
:1016D000F061F3E70143F161F7E7FFF74FFC009991
:1016E000411A5548814267D8F0698007F5D50EE068
:1016F000FFF744FC009007E05EE0FFF73FFC009935
:10170000411A4D48814257D8F0698007F5D4002F1F
:1017100004D0E86B012109078843E863E0690028E9
:101720007BD0A9688906490F02294FD001263606C9
:101730000228286805D0B0432860FFF71FFC044644
:101740003CE0B0432860FFF719FC074604E0FFF7D0
:1017500015FCC01B02282FD828688001F7D4616AC5
:10176000206AA26A0843E16A120211430843216B0E
:101770000843616B0843E968304A11400843E86058
:1017800028683043286000E045E0E8680121090747
:101790000843E860FFF7F2FB044604E0FFF7EEFBC6
:1017A000001B022808D828688001F7D535E0FFF72C
:1017B000E5FB001B022801D90320F8BD2868800141
:1017C000F5D4E8681E490840E86026E00128F4D016
:1017D000E868226A8107890F91421CD17021626AF0
:1017E0000140914217D17F21A26A090201401202F1
:1017F000914210D11F214904E26A014091420AD16D
:1018000007214906226B0140914204D1400F616BD0
:101810004007884201D00120F8BD0020F8BD00003B
:10182000001002400024F4001000002008000020F6
:101830004010024000700040881300008C80C111ED
:10184000FCFFFEEE094910B5401E884201D9012077
:1018500010BD074C60610321081F01F059FE0020F4
:10186000A06107202061002010BD0000FFFFFF00E5
:1018700000E000E07047704770470000F0B5034695
:1018800020331A7F012A28D001221A7702225A77A0
:1018900004686268A568124FBC4205D116460F2243
:1018A000120596434A6832437026B2430E681643C7
:1018B00066600068B84206D001229207904202D0CA
:1018C000084A904204D18022896895432943816067
:1018D0000120587700201877F0BD0220F0BD0000ED
:1018E000002C01400004004070B5040005D02546DE
:1018F0002035687F002802D006E0012070BD00205E
:101900002877204600F016F802206877211D20680D
:1019100001F0B0F8012240342272AA77EA772270EF
:101920006270A270E27022716271A271E2716A77D4
:10193000002070BD10B58CB0044628216846FEF723
:101940003AFC1149206888421BD1012040050090D3
:10195000002008906846FFF7A3FB002801D0FEF79F
:10196000C3FD0A480268C1140A43026000680022ED
:1019700008400A9011460D20FFF768FB0D20FFF785
:1019800059FB0CB010BD0000002C0140401002407B
:10199000014620314A7F012A01D0012070470222EE
:1019A0004A7700680B490122884205D09107884296
:1019B00002D00949884207D18168084B194006299D
:1019C00005D0DB1F994202D001681143016000205D
:1019D00070470000002C0140000400400700010097
:1019E000F8B5054604462035287F0026012817D083
:1019F00001272F7702206877226890682F4B1840C4
:101A0000FF231B02984390600868502838D00EDCF2
:101A100020284FD006DC00284CD010281ED149E0E9
:101A20000220F8BD302845D0402817D13AE0602880
:101A30002ED0702818D001221203801A0FD09042A5
:101A40000CD1CB684A688968206801F06AF8206880
:101A50008168012292031143816000E001266F77C3
:101A6000002028773046F8BDCB684A68896820682E
:101A700001F057F821688868772210438860EEE704
:101A8000CA684968206801F0AFF95021206806E073
:101A9000CA684968206801F0B8F96021206801F03F
:101AA0004BF8DCE7CA684968206801F09DF94021DD
:101AB0002068F4E7226801461046F0E788FFCEFF71
:101AC00070470000F8B504460068C668056900273D
:101AD000A907002913DAB10711D5F91E0161012008
:101AE0002077206880698007204602D0FFF7E8FF52
:101AF00004E000F0F7F8204600F0CEF927776807F9
:101B000016D5700714D504202168C043086102204F
:101B10002077206880698005800F204602D0FFF77B
:101B2000CFFF04E000F0DEF8204600F0B5F927779B
:101B3000280715D5300713D508202168C043086150
:101B4000042020772068C0698007204602D0FFF774
:101B5000B7FF04E000F0C6F8204600F09DF92777B3
:101B6000E80616D5F00614D510202168C043086198
:101B7000082020772068C0698005800F204602D0A9
:101B8000FFF79EFF04E000F0ADF8204600F084F976
:101B90002777E80708D0F00706D001202168C04366
:101BA0000861204600F0DEF9280601D4A80407D514
:101BB000300605D52168134808612046FFF75BFE13
:101BC000E80507D5300605D521680F48086120468D
:101BD000FFF750FE680608D5700606D5402021683C
:101BE000C0430861204600F0BEF9A80608D5B0063B
:101BF00006D520202168C04308612046FFF73CFE3F
:101C0000F8BD00007FDFFFFFFFFEFFFFF0B587B0EC
:101C1000044614216846FEF7CEFA01222168920795
:101C200000242D48012702252C4E914234D1416BCE
:101C300039434163416B39400591416B294341630D
:101C4000406B029428400590D01300900520019528
:101C50006946049503940007FFF7E2F80827029409
:101C6000019569463046009704950394FFF7D8F82C
:101C70000420009005200294019569460495039480
:101C80000007FFF7CDF8052002940195694600078B
:101C90000097049503941AE0114A914219D1416BBF
:101CA00029434163406B0294284005903020009006
:101CB00069460497019503943046FFF7B1F8032075
:101CC0000090029469460497019503943046FFF70B
:101CD000A7F807B0F0BD000000100240000400505B
:101CE000000400407047F8B5044600202646203620
:101CF0000090307F0D4601280CD001200827307756
:101D00000C2A48D008DC002A10D0042A1ED0082A49
:101D100006D130E00220F8BD102A52D0142A60D03B
:101D200001200090002030770098F8BD206800F076
:101D30000DFF20688169394381612068816904222F
:101D400091438161206881692A6911E0206800F06F
:101D50003BFF206881690122D20211438161206822
:101D60008169521091438161206881692A69120258
:101D700011438161D6E7206800F064FF2068C169E3
:101D80003943C1612068C16904229143C16120685F
:101D9000C1692A6912E0206800F092FF2068C169D9
:101DA0000122D2021143C1612068C2690121890266
:101DB0008A43C2612068C1692A6912021143C16164
:101DC000B0E7206800F0B0FF2068416D39434165FD
:101DD0002068426D04218A4342652068416D2A696A
:101DE00012E0206800F0CEFF2068416D0122D2028F
:101DF000114341652068426D012189028A43426591
:101E00002068416D2A691202114341658AE770B565
:101E1000040005D025462035687F002802D006E062
:101E2000012070BD00202877204600F017F802201E
:101E30006877211D206800F01DFE012240342272C7
:101E4000AA77EA7722706270A270E27022716271E2
:101E5000A271E2716A77002070BD000008B501220E
:101E6000016892070A48914206D1C16B01221143D1
:101E7000C163C06B104008E0064A914206D1C26BB4
:101E800002210A43C263C06B0840009008BD0000F5
:101E900000100240000400407047000010B50446E6
:101EA0000223203000290ED0042911D020464030D2
:101EB000082912D00C2915D0102918D0C278012A6F
:101EC0001AD0012010BD827F012AFAD1837714E055
:101ED000C27F012AF5D1C3770FE00278012AF0D141
:101EE00003700AE04278012AEBD1437005E0827862
:101EF000012AE6D1837000E0C3700122206800F05F
:101F000003FE13492068884205D0124A904202D04D
:101F1000114A904204D1426C0123DB031A4342640C
:101F200020680122884205D09107884202D00B49DF
:101F3000884207D181680A4B1940062905D0DB1F6A
:101F4000994202D0016811430160002010BD0000D9
:101F5000002C0140004401400048014000040040C2
:101F6000070001007047704710B5014680310A79BB
:101F7000012A15D001220A7124228A60026813689E
:101F8000146864086400146001225207934300221D
:101F9000426600680360202088600A71104610BD08
:101FA000022010BD10B504468030C068202801D042
:101FB000022010BD00290BD0002A09D00123A068FF
:101FC0001B03984206D12069002803D1C80701D01D
:101FD000012010BD0120E06600202067204601F0AE
:101FE000F1F9010003D1E06E012802D00121084679
:101FF00010BD206810220262EFF31080012383F3EA
:10200000108823681C6814431C6080F31088EEE776
:10201000034A10B5904202D10846FEF7BBF910BD45
:10202000C8010020704770B5044605468034207909
:1020300001281AD0012020712420A0602868066899
:1020400002685208520002602868826807235B0613
:102050009A430A438260284600F0EAFE2868066038
:102060002020A0600020207170BD022070BD70B5DE
:102070000446054680342079012819D001202071BA
:102080002420A06028680668026852085200026096
:1020900028688268D200D2080A438260284600F08D
:1020A000C7FE286806602020A0600020207170BD57
:1020B000022070BD7047704770470000F8B5036894
:1020C0000446D96918689A68B44D0E462E402546D4
:1020D0008035002E75D0B24EB24F164007403743C0
:1020E0006ED0CF0706D0C70504D501271F622B6924
:1020F0003B432B618B0708D5D30706D02768022303
:102100003B622B6904273B432B614B0708D5D30760
:1021100006D0276804233B622B6902273B432B61CF
:102120000B0709D520230340334305D02668082335
:1021300033622E691E432E610B0509D5430107D575
:1021400001232668DB0233622B69202633432B618F
:102150002B69002B42D089060AD520210840C905E9
:102160000A40104304D0616F002901D020468847FF
:10217000286921688968490602D42821084232D09A
:10218000204600F0C9FF21688868400627D5EFF394
:102190001080012282F310888B68402293438B6069
:1021A00080F310882868002819D07F498163286847
:1021B000FEF7F2FC002811D02868816B0DE000E0EA
:1021C00017E08E0615D5012720263F070640174049
:1021D0003E430ED0616FB5E020468847F8BD2046EB
:1021E000FFF76AFFF8BD2046FFF766FF0020286171
:1021F000F8BDE66E012E7DD1CE067BD5C60679D51B
:1022000010221A6223689868264640064036002845
:1022100049DA2968086840680004000CE8D0B78BE8
:102220008742E5D9F08308680068800634D4EFF36C
:102230001080012181F3108819681701B9431960D2
:1022400080F31088EFF31080012181F3108821685A
:102250008B685B085B008B6080F31088EFF3108065
:10226000012181F3108821688B684027BB438B6074
:1022700080F310882020E8600020E066EFF31080F3
:10228000012181F3108821680B6893430B6080F370
:1022900010882868FEF746FC02202067B08BF18B7F
:1022A000401A81B235E0B08BF18B401A81B2F08BCD
:1022B00000289DD000299BD0EFF31080012686F3E3
:1022C00010881E68FF272137BE431E6080F31088E8
:1022D000EFF31080012383F3108823689E68304F4A
:1022E000FF433E409E6080F310882020E86000207D
:1022F000E06600E011E06067EFF31080012383F3F4
:10230000108823681D6895431D6080F310880220A3
:1023100020672046FFF77CFEF8BDCE0208D55602A6
:1023200006D50120000518622046FFF7C4FEF8BD5F
:102330000E060BD501278026FF0506403A401643BE
:1023400004D0A16F002900D046E7F8BD4A0614D595
:10235000420612D52046EFF31081012282F3108845
:102360001A684024A2431A6081F310882021A960D2
:102370000021816700F0B4F8F8BD0A0205D54200DB
:1023800003D52046FFF796FEF8BDC901FCD500280D
:10239000FADA2046FFF746FEF8BD00000F080000FD
:1023A0000100001020010004F92F000870B504009E
:1023B00005D025468035A868002802D006E0012017
:1023C00070BD00202871204600F026F82420A86067
:1023D00020680168490849000160A06A002802D00D
:1023E000204600F047FD204600F0E6FE0128E7D039
:1023F000206841680922D2029143416020688168C7
:102400002A22914381602068016801221143016002
:10241000204600F095FD70BD70B590B006461421C1
:102420000AA8FDF7C8FE28216846FDF7C4FE264924
:102430003068884245D1012000250090019568460A
:10244000FEF72EFE002801D0FEF74EF81F48026866
:10245000012189030A430260006808400F901B486D
:102460004038426B02210A434263406B0AAA08408B
:102470000F90C02023C20D950AA915480E95FEF7AE
:10248000CFFC154C13482060A5603220E5606060E9
:1024900065618020A561206120202562E0612046E1
:1024A000FEF714FC002801D0FEF71EF880208451AE
:1024B000002211461B20A662FEF7C8FD1B20FEF776
:1024C000B9FD10B070BD000000380140401002405E
:1024D00000040050080002405C0200207047704772
:1024E0007047FEE78068C007C00F70478068C0076C
:1024F000C00F704780684007C00F7047026807230D
:102500009B059A430A430260704710B5436904244F
:10251000214007248C40A3438A401343436110BDEC
:102520003EB500242A480094019428490294016091
:1025300084600905C4604160042549124561016158
:1025400004764476847601462031C5610C7044627D
:1025500084620C730463446384630C77C464FEF781
:1025600087F9002801D0FDF7BFFF012000900194FA
:10257000694602941648FEF769F8002801D0FDF775
:10258000B3FF14480090694601951148FEF75EF8C4
:10259000002801D0FDF7A8FF0F4800900820019007
:1025A00069460B48FEF752F8002801D0FDF79CFF62
:1025B0000A4800900C20019069460548FEF746F84D
:1025C000002801D0FDF790FF3EBD0000002401402F
:1025D0002400002010000010400000188000001CA3
:1025E00008B50C48816B012211438163806B104058
:1025F0000022009011460920FEF728FD0920FEF771
:1026000019FD002211460A20FEF720FD0A20FEF7E0
:1026100011FD08BD0010024008B50848416B0122B9
:1026200011434163416B11400091426B02210A4307
:102630004263406B0840009008BD0000001002405B
:1026400010B588B0002405940694184803940494A7
:10265000009401941449029401603F218460416018
:102660000461446112498461C160FFF73DF90028AB
:1026700001D0FDF739FF01200003039003A90B48A7
:10268000FFF7AEF9002801D0FDF72EFF009401946A
:10269000694606480294FFF7F1F8002801D0FDF7DB
:1026A00023FF08B010BD0000002C0140E400002012
:1026B000FFF9000010B58AB00024079408941C218B
:1026C00068460994FDF777FD0121244889070160D8
:1026D0003F2184604160046121498461C160FFF74A
:1026E00096FB002801D0FDF7FFFE079407A91B48C1
:1026F0000994FFF7C3F8002801D0FDF7F5FE60202C
:102700000090019402940022694604941348FFF754
:10271000EAFA002801D0FDF7E7FE042269460F48D7
:10272000FFF7E1FA002801D0FDF7DEFE0822694636
:102730000A48FFF7D8FA002801D0FDF7D5FE0C2291
:1027400069460648FFF7CFFA002801D0FDF7CCFE16
:102750000248FFF75BFA0AB010BD0000300100200C
:102760001F4E000010B58AB00024079408941C2165
:1027700068460994FDF71FFD2448234901603F2165
:1027800084604160046122498461C160FFF73FFBBE
:10279000002801D0FDF7A8FE079407A91B4809945B
:1027A000FFF76CF8002801D0FDF79EFE6020009036
:1027B000019402940022694604941448FFF793FAA6
:1027C000002801D0FDF790FE042269460F48FFF76C
:1027D0008AFA002801D0FDF787FE082269460B48D7
:1027E000FFF781FA002801D0FDF77EFE0C22694632
:1027F0000648FFF778FA002801D0FDF775FE034878
:10280000FFF704FA0AB010BD000400407C0100206C
:102810001F4E000010B51848164901601749416065
:1028200000218160C16001618161C16101620C228E
:10283000416242618162FFF7B9FD002801D0FDF7D6
:1028400053FE00210C48FFF712FC002801D0FDF7D1
:102850004BFE00210848FFF7E6FB002801D0FDF7FA
:1028600043FE0548FFF780FB002801D0FDF73CFE42
:1028700010BD000000380140C8010020A06806001B
:10288000F8B50C462449164648437D21C900FDF79A
:1028900047FC05B220487D277F0160433946FDF79C
:1028A0003FFC04B21C4839467043FDF739FC01B2C5
:1028B0002B1B2D195A186C185B1A1848691A164EDA
:1028C0004460836075420260C160B24201DD06600F
:1028D00002E0AA4200DA0560B44201DD466002E08F
:1028E000AC4200DA4560B34201DD866002E0AB42F3
:1028F00000DA8560B14201DDC66002E0A94200DA7B
:10290000C56081890BB201890AB28188008809B249
:1029100000B200F01FF8F8BD204E000014000020A7
:10292000FEE7704710B503000BD02B20C05C0028D9
:1029300008D0222020212422185E595E9A5EFFF7DB
:102940009FFF10BD00231A461946184600F002F8F2
:1029500010BD7047F8B51D4616460F46044600F0F8
:1029600008FE002C01DD012100E00021494289B26E
:1029700002460A400124A407A263884360633846E4
:1029800000F0F7FD002F01DD012100E000214942A8
:1029900089B20246134B0A401A608843E06330460E
:1029A00000F0E7FD002E01DD012100E00021494299
:1029B00089B202460C4C0A40A263884360632846F1
:1029C00000F0D7FD002D01DD012100E0002149428A
:1029D00089B20246044B0A4040331A608843E063E0
:1029E000F8BD0000400000400004004010B5FEF7B4
:1029F000CBFA10BD30B593B038216846FDF7DBFB4C
:102A0000002501200E950F95109540021195FEF7B7
:102A100021FB0224E001039000944020059008204F
:102A20000A9080030B900320079440060C900894B2
:102A3000200704950D9009956846FEF70FFD0028C4
:102A400001D072B6FEE707200EA931C102210EA8FF
:102A50001195FEF7FDFB002801D072B6FEE713B01A
:102A600030BD704710B50248FFF72CF810BD0000CC
:102A7000E4000020F0B502681E4B0124A4071E4D9F
:102A8000984203D0A04201D0A84203D17026B2439D
:102A90004E683243194E1A4F98420AD0A04208D0CD
:102AA000A84206D0174CA04203D0B04201D0B84291
:102AB00004D103242402A243CC6822438024A243ED
:102AC0004C69224302608A68C2620A688262984244
:102AD00003D0B04201D0B84201D10969016301219C
:102AE00041610169C90703D00169490849000161D1
:102AF000F0BD0000002C01400004004000440140F3
:102B0000004801400020004010B5CB06DB0E01213B
:102B1000046A99408C430462016A9A40114301623D
:102B200010BD30B58468FF252D021B021343AC4352
:102B30000B432343836030BD8268034B1A400A4332
:102B400007210A43826070478FFFCFFFF0B5056A07
:102B5000026A52085200026243688269164C184E9B
:102B6000224092080C6892001443022295438A681E
:102B70002A43124DA84204D0B04202D0114FB842AD
:102B800006D10827BA43CF681743042297433A4631
:102B9000A84204D0B04202D00A4DA84206D1032573
:102BA0002D02AB434D691D438B692B434360846108
:102BB000496841630262F0BD8FFFFEFF002C0140B7
:102BC000004401400048014070B5046A026A1023C5
:102BD0009A43026243688269164D2A4003252D02FA
:102BE000AA430D682D021543202294438A681201DE
:102BF0002243114CA04207D18024A243CC68402636
:102C000024012243B24305E00C4CA04202D00C4CFC
:102C1000A04208D10324A402A3434C69A4001C438E
:102C20008B699B002343436085614968816302622D
:102C300070BD0000FF8FFFFE002C014000440140EA
:102C40000048014070B5046A026AFF2301339A43C9
:102C500002624368C269164D2A4092080D689200CC
:102C600015430122520294438A6812022243114CF6
:102C7000A04208D11446CA68C614B44312022243C3
:102C80000415A24305E00C4CA04202D00B4CA0421C
:102C900008D103242403A3434C6924011C438B69FA
:102CA0001B0123434360C5614968C163026270BD73
:102CB0008FFFFEFF002C014000440140004801400E
:102CC00030B5046A026A01231B039A430262436817
:102CD000C269114D2A4003252D02AA430D682D0219
:102CE00015430122520394438A68120322430B4C7A
:102CF000A04205D00A4CA04202D00A4CA04205D105
:102D00000124A403A3434C69A40123434360C56188
:102D100049680164026230BDFF8FFFFE002C014054
:102D2000004401400048014070B5036A026A012670
:102D30003604B24302624268456D0E4C25400C6871
:102D40002C437500AB430D892D041D430A4B98425B
:102D500005D00A4B984202D0094B984203D14B69E7
:102D6000B2431B021A4342604465496881650562AB
:102D700070BD00008FFFFEFF002C014000440140A9
:102D80000048014070B5046A026A01231B059A439A
:102D900002624268436D104D2B400D682D021D43A9
:102DA00001235B059C430B891E050C4B264398426F
:102DB00005D00B4B984202D00A4B984206D1012411
:102DC0001346A4044A69A34392021A43426045652C
:102DD0004968C165066270BDFF8FFFFE002C01408F
:102DE000004401400048014030B5036A046A6408A9
:102DF000640004628469F025AC43120122430A2472
:102E0000A3430B438261036230BD30B5046A036A99
:102E10001025AB43036283690F252D031203AB43D7
:102E20001A43A0239C43090121438261016230BD02
:102E3000F8B50446416E4034002915D00068816819
:102E4000806809014D0F0A4E400F3746315C083F3C
:102E5000385CC000FDF74EF96085785D715DC0009B
:102E6000FDF748F92085F8BD01206085FAE70000EC
:102E7000B836000810B5018D090707D501684A6802
:102E80000123DB039A43836B1A434A60018DC90710
:102E900007D001684A6801235B049A43C36A1A4356
:102EA0004A60018D890707D501684A6801231B0420
:102EB0009A43036B1A434A60018D490707D501689D
:102EC0004A6801239B049A43436B1A434A60018D6D
:102ED000C90607D50268916801231B039943C36B98
:102EE00019439160018D890607D501688A6801231D
:102EF0005B039A43036C1A438A60018D490612D51D
:102F000003685A6801210905446C8A4322435A60C8
:102F1000426C8A4207D10268516803235B059943DA
:102F2000836C19435160018D090607D501684A6811
:102F30000123DB04C06C9A4302434A6010BD0000C9
:102F4000FEB505460026803504462E61FEF716F8CC
:102F500001902068006820270007002817DA25481C
:102F60000090002239042046019B00F081FA0028DD
:102F70000DD0EFF31080012181F3108821680A68D9
:102F800080239A430A6080F31088AF6028E02068AD
:102F90000068400727D517480090012100228905C5
:102FA0002046019B00F064FA00281CD0EFF310804B
:102FB000012181F3108821680A68FF2321339A4395
:102FC0000A6080F31088EFF31080012181F31088EC
:102FD00021688A68520852008A6080F31088EF6086
:102FE0002E710320FEBDAF60EF60E66626672E718E
:102FF0000020FEBDFFFFFF0110B5806A00220146E0
:103000004031CA83CA82FFF757F810BDF8B5846A09
:103010002046803081680546C668206880680027A1
:103020000006002806DA212904D15620075320463D
:1030300000F0A4F820688068400606D5222E04D14E
:103040005E200753204600F067F8286910210843E6
:1030500028612046FFF730F8F8BD70B501460968D1
:10306000806A096800228906002938DB5E210A523D
:10307000EFF31081012383F3108803681C68FF2598
:103080000135AC431C6081F31088EFF310810123FC
:1030900083F3108803689C68640864009C6081F373
:1030A0001088EFF31081012383F3108803689C6874
:1030B0004025AC439C6081F3108820238C210B5069
:1030C000C16E01290BD1EFF31081012383F3108826
:1030D00003681C681025AC431C6081F310880267EC
:1030E000C16E012902D0FFF7F9F970BD5C21095AC0
:1030F000FEF78EFF70BD10B5806A01210167C16EB9
:10310000012902D0FFF7EBF910BD5C21095A4908EB
:10311000FEF77EFF10BD000010B5EFF31081012215
:1031200082F3108802681368FF242134A3431360DC
:1031300081F31088EFF31081012282F31088026876
:1031400093680D4C2340936081F31088C16E012970
:103150000BD1EFF31081012282F31088026813680B
:103160001024A343136081F3108820228C210A507D
:103170000021C166416710BDFEFFFFEF10B5EFF300
:103180001081012282F3108802681368C024A343CF
:10319000136081F31088EFF31081012282F310880D
:1031A000026893680124E405A343936081F31088C7
:1031B00020218030816010BDF8B504460168806828
:1031C0002369E5691843636900262B431843734A52
:1031D0000B68734D2B4003430B6020684168032349
:1031E0001B039943E368194341602168A069914238
:1031F00001D0236A18438B686A4D2B4003438B60D0
:103200002068C16A636A090909011943C1626649F4
:10321000236866488B420AD140698007800F09D035
:1032200001282CD0022828D0032816D113E06049A9
:103230008B4201D1002111E093420ED1416903205C
:10324000800201400AD001208002091A17D0091A11
:1032500013D0814201D1082100E010210120554DF9
:10326000554FC00393423DD100290AD0022911D005
:10327000042909D0082934D10BE00221EEE704210A
:10328000ECE7FEF791F801E0FEF7A2F8050001D1A6
:1032900079E00546606A4000395A28460091FCF7FB
:1032A00029FF676879007918814267D8390381421C
:1032B00064D3002328461946009AFCF745FF020E06
:1032C00009020302780811431818002251413A46B6
:1032D0000023FCF739FF03210902384A411A9142C1
:1032E0004FD94BE0E269824227D1002906D002295A
:1032F00007D0042907D0082940D108E0FEF754F888
:1033000003E0284603E0FEF763F800283BD0616A3B
:103310004900795AFCF7EEFE616840004A088018BF
:10332000FCF7E8FE0146264A1039914226D8511C86
:1033300001400007400F084323E0002906D002297E
:1033400007D0042907D0082918D108E0FEF72CF887
:1033500003E0284603E0FEF73BF8002813D0616A3B
:103360004900795AFCF7C6FE61684A088018FCF7E4
:10337000C1FE0146124A1039914201D9012602E0EC
:1033800080B22168C8602046012140304185018516
:1033900000206067A0673046F8BD00000080004054
:1033A000F369FFCFFFF4FF110038014040100240E5
:1033B000004400400024F40098360008FFFC0F0091
:1033C000EFFF000070B50446816540308283002025
:1033D0002546803528612221E9602968002919D015
:1033E000204BCB622B68204919632B681F49596316
:1033F000296813468863A66D2168324624312868FF
:10340000FDF7B6FC002805D0102028612020E860D8
:10341000012070BD206900280CD0EFF3108001213D
:1034200081F3108821680A68FF2301331A430A6078
:1034300080F31088EFF31080012181F31088226857
:1034400093680B43936080F31088EFF3108081F34F
:10345000108821688A6840231A438A6080F31088A4
:10346000002070BD5B300008F73000080D30000808
:10347000FFB581B005460E46044680350A9F32E00E
:10348000781C30D0FDF77AFD0499401AB84218D85C
:10349000002F16D020680168490724D5802E22D03D
:1034A000402E20D0C169C94309070CD40826066202
:1034B0002046FFF731FE2E6100202871012005B063
:1034C000F0BD0320FBE7C069C04300050BD4012019
:1034D0002168C00208622046FFF71EFE20202861F6
:1034E00000202871EDE72068C1693046884305D087
:1034F000002103988142C3D00020E0E70121F8E7D2
:1035000010B50248FEF7DAFD10BD0000C80100202A
:103510008307FF22DB0E9A408907090E9940002895
:1035200008DB830809489B001B1818689043084370
:10353000186070470007000F0838830804489B0094
:103540001B18D86990430843D861704700E400E035
:1035500000ED00E002E008C8121F08C1002AFAD1FD
:1035600070477047002001E001C1121F002AFBD103
:103570007047C1134840401A80B2704710B51C46CE
:10358000029B8A4201D8204610BD884201D20846DB
:1035900002E0904200D91046401A1B1B5843511AB2
:1035A000FCF7BEFD001900B210BDF8B50546079E38
:1035B00006981C468A4213D98C4211D994420FD2E4
:1035C0008319DF0FFB185B101BB2A54203D20093D7
:1035D0000346224601E0214600962846FFF7CEFF2B
:1035E000F8BD0000FDF7D8FCFFF704FAFFF714F868
:1035F000FEF7F6FFFFF70EF9FFF75CF8FFF7B2F8FA
:10360000FFF71EF8FEF78CFF1E48FCF76FFF1E4801
:10361000FEF7BEF900211C48FEF740FC04211A48C1
:10362000FEF73CFC08211848FEF738FC0C21164830
:10363000FEF734FC1548FEF7ABF900211348FEF7FE
:103640002DFC04211148FEF729FC08210F48FEF744
:1036500025FC0C210D48FEF721FC7D20C000FDF764
:10366000CDFBFFF7D7F8FCF781FEFCF71DFEFDF759
:1036700085FC074908600748FFF754F90A20FDF761
:10368000BDFBF8E724000020300100207C01002071
:1036900000000020DC0200200100020004000600FF
:1036A00008000A000C00100020004000800000010B
:1036B00001010103070100000804020408010101DF
:1036C00000000000000000000000000000000000FA
:1036D00000000000000000000000000000000000EA
:1036E00001000000020000000300000004000000D0
:1036F00006000000070000000800000009000000AC
:1037000000000000000000000000000000000000B9
:10371000010000000200000003000000040000009F
:103720004037000800000020240000005435000845
:103730006437000824000020F40600006435000807
:103740000000000001000000040000000000000074
:103750000024F40000000000000000000000000051
:043760000000000065
:04000005080000C12E
:00000001FF
